:020000040800F2
:1000000008040020B9100008E1100008E3100008FF
:10001000E5100008E7100008E910000800000000E3
:10002000000000000000000000000000EB100008CD
:10003000ED10000800000000EF100008F1100008AB
:10004000F3100008F3100008F3100008F310000884
:10005000F3100008F3100008F3100008F310000874
:10006000F3100008F3100008F3100008F310000864
:10007000F3100008F3100008F3100008F310000854
:10008000F3100008F3100008F3100008F310000844
:10009000F3100008F3100008F3100008F310000834
:1000A000F3100008F3100008F3100008F310000824
:1000B000F3100008F3100008F3100008F310000814
:1000C000F3100008F3100008F3100008F310000804
:1000D000F3100008F3100008F3100008F3100008F4
:1000E000F3100008F3100008F3100008F3100008E4
:1000F000F3100008DFF80CD001F006F800480047C4
:100100008110000808040020FC48006840F080507E
:10011000FA490860FA48006840F48070F8490860BD
:10012000F6481030006840F40030F449103108609F
:100130000846006840F480000860CA20F149086061
:100140005320086000BFED482438006800F40070B8
:100150000028F8D0E948006840F40070E7490860DA
:10016000081F006840F00100091F0860E3481030D4
:10017000006840F00100E1491031086000BFDF482D
:100180001030006800F002000028F8D0DB48103082
:10019000006820F40030D949103108600846006832
:1001A00040F4003008600846006840F480000860B1
:1001B0007047D548008800F48070002864D1D24888
:1001C000008800F4807000285CD1D048808A40F01C
:1001D0002000CE498882CC48008800F4807030B17D
:1001E0000846808A20F02000888231207047C74866
:1001F000808A20F02000C54988820846808A40F421
:1002000000608882C048008800F4807030B10846E1
:10021000808A20F4006088823420E7E7BB48808A27
:1002200020F40060B94988820846808A40F48050F2
:100230008882B548008800F4807030B10846808A12
:1002400020F4805088823720D0E7B048808A20F49C
:100250008050AE4988820846808A40F400408882F7
:10026000A948008800F4807030B10846808A20F4E4
:10027000004088822A20B9E7A448808A20F4004000
:10028000A24988827F20B1E79F48008800F400508F
:10029000002864D19C48008800F4005000285CD1FC
:1002A0009A48808A40F020009849888296480088C1
:1002B00000F4005030B10846808A20F02000888287
:1002C000322093E79148808A20F020008F4988826D
:1002D0000846808A40F4006088828B48008800F4D9
:1002E000005030B10846808A20F4006088823520B2
:1002F0007CE78648808A20F400608449888208462A
:10030000808A40F4805088827F48008800F4005042
:1003100030B10846808A20F480508882382065E712
:100320007A48808A20F48050784988820846808AFA
:1003300040F4004088827448008800F4005030B1D6
:100340000846808A20F40040888230204EE76F48BB
:10035000808A20F400406D4988827F2046E76A4801
:10036000008800F48040002864D16748008800F4C9
:10037000804000285CD16548808A40F020006349B5
:1003800088826148008800F4804030B10846808A45
:1003900020F020008882332028E75C48808A20F003
:1003A00020005A4988820846808A40F4006088828A
:1003B0005548008800F4804030B10846808A20F417
:1003C00000608882362011E75048808A20F400605F
:1003D0004E4988820846808A40F4805088824A4884
:1003E000008800F4804030B10846808A20F48050B4
:1003F00088823920FAE64548808A20F480504349B3
:1004000088820846808A40F4004088823E480088FE
:1004100000F4804030B10846808A20F40040888291
:100420002320E3E63948808A20F400403749888257
:100430007F20DBE63448008800F4004000286FD1BC
:100440003148008800F40040002867D12F48808A96
:1004500040F020002D4988822B48008800F400409D
:1004600030B10846808A20F0200088824120BDE615
:100470002648808A20F02000244988820846808A05
:1004800040F4006088822048008800F4004030B1C9
:100490000846808A20F4006088824220A6E61B4835
:1004A000808A20F40060194988820846808A40F4D6
:1004B000805088821448008800F4004030B108461B
:1004C000808A20F48050888243208FE60F48808AFB
:1004D00020F480500D4988820846808A40F400400C
:1004E00088820948008800F4004088B10846808A64
:1004F00020F400408882442078E611E0243802404D
:100500000070004024280040100402400000024017
:10051000FC48808A20F40040FA4988827F2065E602
:100520007F2063E6F848406A20F42041F6484162A3
:10053000C06A20F42041F448C162406AF349097856
:1005400040EA0131F0484162C06AF049497840EA26
:100550000131ED48C1627047F0B50C4615461E46A4
:1005600000220778342F47D014DC2F2F38D008DC36
:10057000202F24D0252F35D02A2F22D02D2F47D120
:100580002BE0302F34D0312F33D0322F32D0332FD5
:100590003ED130E0392F34D008DC352F2DD0362F26
:1005A0002CD0372F2BD0382F32D129E03F2F0BD032
:1005B0006D2F0CD06E2F0DD0FF2F29D115E000220A
:1005C0003FE04AF2DD023CE046F2840239E04BF2C1
:1005D000102236E042F2102233E04FF4204230E0A5
:1005E000C0222EE04FF433422BE04FF6DD7228E0BC
:1005F00000BF00BF00BF00BF00BF00BF00BF00BF03
:1006000000BF0778303FDFF808C33CF8172018E038
:1006100007785B2F08DA0778402F05DD0778413F20
:10062000DFF8F0C23CF8172007787B2F08DA07784C
:10063000602F05DD0778613FDFF8D8C23CF817204E
:1006400000BF00BF0CB142F002020DB142F0200227
:100650000C23002108E042FA03F707F00F07775454
:100660001F1FFBB24F1CF9B20429F4DBF0BDF8B533
:1006700005460E4617461C466B463A463146284606
:10068000FFF76AFF00BFA0480830006800F00400D0
:100690000028F8D1072C7DD2DFE804F07C045DD47B
:1006A000FEFDFC009848143000689B4908409649BC
:1006B000143108609448C069974908409249C8615C
:1006C0000846406A944908408F4948620846C06A13
:1006D000914908408C49C8629DF8000000F0030071
:1006E0009DF8001001F00C0140EA81608649143148
:1006F000096808438449143108609DF8010000F03E
:1007000003009DF8011001F00C0140EA81607E4970
:10071000C96908437C49C8619DF8020000F00300E4
:100720009DF8021001F00C0140EA81607649496AA7
:100730000843754948629DF8030000F003009DF8E6
:10074000031001F00C0140EA81606F49C96A084357
:100750006D49C86222E26C48143000686F49084055
:100760006949143108606848C0696C4908406649A5
:10077000C8610846406A69490840634948620846BA
:10078000C06A664908406049C8629DF8000000F0F0
:100790000C0000E001E200069DF8001001F00201EB
:1007A00040EA81109DF8001001F0010140EA81004B
:1007B00055491431096808435349143108609DF8BC
:1007C000010000F00C0000069DF8011001F002018C
:1007D00040EA81109DF8011001F0010140EA81001A
:1007E0004949C96908434849C8619DF8020000F0B9
:1007F0000C0000069DF8021001F0020140EA811091
:100800009DF8021001F0010140EA81003E49496A69
:1008100008433D4948629DF8030000F00C000006C3
:100820009DF8031001F0020140EA81109DF80310C9
:1008300001F0010140EA81003349C96A08433249A5
:10084000C862ABE130481430006820F003202E4924
:10085000143108602C48C06920F003212A48C16186
:10086000406A20F0032128484162C06A20F0032139
:100870002548C1629DF8000000F00C0080059DF83D
:10088000001001F0030140EA01201F4914310968FA
:10089000084302E008E1A6E042E01B491431086089
:1008A0009DF8010000F00C0080059DF8011001F09A
:1008B000030140EA01201449C96908431249C8618B
:1008C0009DF8020000F00C0080059DF8021001F078
:1008D000030140EA01200C49496A08430A49486279
:1008E0009DF8030000F00C0080059DF8031001F056
:1008F000030140EA01200449C96A08430249C86269
:100900004CE10000000002400024004000000020F4
:100910007E1100084A110008FCFFFFCF03FFFFF320
:10092000FE480068FE490840FC490860FB4814384E
:10093000C069FB490840F9491439C8610846406A52
:10094000F7490840F549143948620846C06AF44935
:100950000840F2491439C8629DF8000000F00C000C
:1009600080049DF8001001F0030140EA8120EB496A
:1009700009680843E94908609DF8010000F00C008F
:1009800080049DF8011001F0030140EA8120E34951
:100990001439C9690843E1491439C8619DF8020056
:1009A00000F00C0080049DF8021001F0030140EA01
:1009B0008120DA491439496A0843D8491439486210
:1009C0009DF8030000F00C0080049DF8031001F076
:1009D000030140EA8120D1491439C96A0843CF494B
:1009E0001439C862DAE0CD48006820F44320CB49CE
:1009F0000860CA481438C06920F44321C748143835
:100A0000C161406A20F44121C44814384162C06A7F
:100A100020F44121C1481438C1629DF8000000F063
:100A20000C0000049DF8001001F0030140EA0130C1
:100A3000BA4909680843B94908609DF8010000F007
:100A40000C0000049DF8011001F0030140EA0130A0
:100A5000B2491439C9690843B0491439C8619DF8CD
:100A6000020000F00C0000049DF8021001F00101EA
:100A700040EA0130A9491439496A0843A7491439A1
:100A800048629DF8030000F00C0000049DF803107C
:100A900001F0010140EA0130A0491439C96A084354
:100AA0009E491439C86279E09C48006820F470308F
:100AB0009A49086099481438C06920F47031974801
:100AC0001438C161406A20F470319448143841628E
:100AD000C06A20F4703191481438C1629DF800005A
:100AE00000F00400C0039DF8001001F0080140EA86
:100AF00041309DF8001001F0030140EA8130874940
:100B000009680843854908609DF8010000F0040069
:100B1000C0039DF8011001F0080140EA41309DF842
:100B2000011001F0030140EA81307C491439C969A0
:100B300008437A491439C8619DF8020000F00400A6
:100B4000C0039DF8021001F0080140EA41309DF811
:100B5000021001F0010140EA813070491439496AFC
:100B600008436E49143948629DF8030000F0040000
:100B7000C0039DF8031001F0080140EA41309DF8E0
:100B8000031001F0010140EA813064491439C96A57
:100B9000084362491439C86200E000BF00BFFFF794
:100BA000C1FC5E480C38006840F004005B490C3919
:100BB000086000BF59480C38006800F008000028A1
:100BC000F8D0F8BD10B50446012300221146204696
:100BD000FFF74DFD022300221146601CFFF747FD81
:100BE000032300221146A01CFFF741FD042300222D
:100BF0001146E01CFFF73BFD052300221146201D96
:100C0000FFF735FD062300221146601DFFF72FFD7B
:100C100010BD08B57F208DF800008DF801008DF81B
:100C2000020057E0FFF7C5FA04467F2C12D09DF86A
:100C300000007F280ED18DF80040232C01D18DF8C3
:100C400000006846FFF7BEFF02E0FFF7B2FA044675
:100C50007F2CFAD17F2C14D09DF801007F2810D171
:100C60008DF80140232C03D18DF800008DF8010090
:100C70006846FFF7A7FF02E0FFF79BFA04467F2CC8
:100C8000FAD17F2C14D09DF802007F2810D18DF866
:100C90000240232C03D18DF801008DF80200684634
:100CA000FFF790FF02E0FFF784FA04467F2CFAD1A9
:100CB000232C0FD19DF802007F280BD07F208DF8C8
:100CC00002006846FFF77EFF02E0FFF772FA044673
:100CD0007F2CFAD1A6E71348006820F44030114970
:100CE00008600846006820F0406008600846006818
:100CF00020F0405008600846006820F0404008603E
:100D000008480C30006820F4403006490C31086077
:100D10000846006820F04060086005E014240040A8
:100D2000FFF3CFFF000402400846006820F0405067
:100D300008600846006820F04040086008460068E7
:100D400020F4003008600846006820F00060086069
:100D50000846006820F0005008600846006820F04F
:100D600000400860CB48006820F44060C949086032
:100D70000846006820F4400008600846006820F03B
:100D8000407008600846006820F04040086008464F
:100D9000006840F4806008600846006840F4800005
:100DA00008600846006840F08070086008460068E7
:100DB00040F0804008600846808840F0200088802D
:100DC0000846808840F4006088800846808840F4A7
:100DD000805088800846808840F40040888008461B
:100DE000806820F4406088600846806820F44000F5
:100DF00088600846806820F04070886008468068F7
:100E000020F0404088600846806840F400608860B8
:100E10000846806840F4000088600846806840F01A
:100E2000007088600846806840F00040886008468E
:100E3000C06820F44060C8600846C06820F44000E4
:100E4000C8600846C06820F04070C8600846C068A6
:100E500020F04040C86070478F48006840F04C0068
:100E60008D490860081D006840F44060091D086055
:100E7000081F006840F08000091F086008460068ED
:100E800020F002000860081D006840F07000091D95
:100E9000086017E080480830006800F0200088B142
:100EA0007D48006840F001007B4908600846006802
:100EB00000F0010030B178480830006800F02000F0
:100EC00000B100E0E6E700BF70477448006840F0FA
:100ED0000700724908606F48006820F00C006D49F7
:100EE00008600846006820F0300008600846006886
:100EF00020F0C00008600846006820F44030086018
:100F00000846006820F4402008600846006820F485
:100F1000401008600846006840F008000860084675
:100F2000006840F0200008600846006840F080003B
:100F300008600846006840F4003008600846006811
:100F400040F4002008600846006840F40010086083
:100F50000846006A4BF6B03108434E49086208461D
:100F6000406A4F4908434B49486208468068002060
:100F700088600846C0680020C86008468088002055
:100F800088804848006820F0C0004649086008464C
:100F9000006820F4407008600846006820F4406053
:100FA00008600846006820F4402008600846006891
:100FB00020F4401008600846006820F440000860F3
:100FC0000846006820F0407008600846006840F05D
:100FD000800008600846006840F400700860084619
:100FE000006840F4006008600846006840F4002093
:100FF00008600846006840F4001008600846006871
:1010000040F4000008600846006840F00070086086
:1010100024482030006824490843224920310860D0
:101020002048406A40F0BB311E4841621D480830EC
:10103000006800201B49083108601C48006800F067
:1010400070401A4908600846006819490843174962
:1010500008601648203000681649084313492031BB
:1010600008601248406A4BF6BB3108430F4948629A
:101070000E480830006800200C49083108607047AD
:10108000FFF742F8FFF721FFFFF7E6FEFFF723FE29
:10109000FFF7BFFD00000240002400401C38024062
:1010A000BB0B00B00004024000B0BB0000080240CF
:1010B000AAA0AA00BBBB00BB0E480F490F4B994228
:1010C0003CBF50F8042B41F8042BF8D30C494FF0E7
:1010D00000028B4238BF43F8042BFAD3094800477B
:1010E000FEE7FEE7FEE7FEE7FEE7FEE7FEE7FEE7D8
:1010F000FEE7FEE7B4110008000000200400002015
:1011000008040020F5000008064C074D06E0E068E2
:1011100040F0010394E8070098471034AC42F6D33E
:10112000FEF7ECFF94110008B411000802E008C8B3
:10113000121F08C1002AFAD170477047002001E051
:1011400001C1121F002AFBD1704700FE1467001D69
:101150001447009D009C003F00FA14000053419882
:101160000019485A095A005F00FC015F01FC00AFFA
:101170001404005BC018815AC9005800C005005F04
:10118000004200F5006700EA00AF00BF004600FF24
:1011900000EF0000B411000800000020040000006F
:1011A0002C110008B81100080400002004040000FD
:0811B0003C11000800000000E2
:04000005080000F5FA
:00000001FF
