:020000040800F2
:1000000008040020E90A0008110B0008130B00087F
:10001000150B0008170B0008190B00080000000062
:100020000000000000000000000000001B0B0008A2
:100030001D0B0008000000001F0B0008210B00082A
:10004000230B0008230B0008230B0008230B0008D8
:10005000230B0008230B0008230B0008230B0008C8
:10006000230B0008230B0008230B0008230B0008B8
:10007000230B0008230B0008230B0008230B0008A8
:10008000230B0008230B0008230B0008230B000898
:10009000230B0008230B0008230B0008230B000888
:1000A000230B0008230B0008230B0008230B000878
:1000B000230B0008230B0008230B0008230B000868
:1000C000230B0008230B0008230B0008230B000858
:1000D000230B0008230B0008230B0008230B000848
:1000E000230B0008230B0008230B0008230B000838
:1000F000230B0008DFF80CD000F01EFD004800477D
:10010000A90A000808040020FC48006840F080505C
:10011000FA490860FA48006840F48070F8490860BD
:10012000F6481030006840F40030F449103108609F
:100130000846006840F480000860CA20F149086061
:100140005320086000BFED482438006800F40070B8
:100150000028F8D0E948006840F40070E7490860DA
:10016000081F006840F00100091F0860E3481030D4
:10017000006840F00100E1491031086000BFDF482D
:100180001030006800F002000028F8D0DB48103082
:10019000006820F40030D949103108600846006832
:1001A00040F4003008600846006840F480000860B1
:1001B0007047D548406A20F42041D3484162C06A64
:1001C00020F42041D048C162406AD049097840EA11
:1001D0000131CD484162C06ACC49497840EA0131D9
:1001E000C948C1627047F0B50C4615461E4600224C
:1001F0000778342F47D014DC2F2F38D008DC202F7D
:1002000024D0252F35D02A2F22D02D2F47D12BE0D7
:10021000302F34D0312F33D0322F32D0332F3ED144
:1002200030E0392F34D008DC352F2DD0362F2CD0AC
:10023000372F2BD0382F32D129E03F2F0BD06D2F05
:100240000CD06E2F0DD0FF2F29D115E000223FE0FA
:100250004AF2DD023CE046F2840239E04BF2102221
:1002600036E042F2102233E04FF4204230E0C02268
:100270002EE04FF433422BE04FF6DD7228E000BF52
:1002800000BF00BF00BF00BF00BF00BF00BF00BF76
:100290000778303FDFF878C23CF8172018E007787D
:1002A0005B2F08DA0778402F05DD0778413FDFF83C
:1002B00064C23CF8172007787B2F08DA0778602F94
:1002C00005DD0778613FDFF84CC23CF8172000BF1E
:1002D00000BF0CB142F002020DB142F020020C232B
:1002E000002108E042FA03F707F00F0777541F1FB9
:1002F000FBB24F1CF9B20429F4DBF0BDF8B505469A
:100300000E4617461C466B463A4631462846FFF7CE
:100310006AFF00BF7C480830006800F00400002835
:10032000F8D1072C7ED2DFE804F07D045DD4FDFC1B
:10033000FB00754814300068774908407249143151
:1003400008607148C069744908406F49C86108462F
:10035000406A714908406C4948620846C06A6E4963
:1003600008406949C8629DF8000000F003009DF84C
:10037000001001F00C0140EA816063491431096802
:1003800008436149143108609DF8010000F0030042
:100390009DF8011001F00C0140EA81605A49C969D9
:1003A00008435949C8619DF8020000F003009DF818
:1003B000021001F00C0140EA81605349496A084388
:1003C000514948629DF8030000F003009DF80310B6
:1003D00001F00C0140EA81604B49C96A08434A496F
:1003E000C86213E24848143000684C490840464946
:1003F000143108604448C069484908404249C8610E
:100400000846406A454908403F4948620846C06A74
:10041000424908403C49C8629DF8000000F00C00C9
:10042000000600E0F1E19DF8001001F0020140EA51
:1004300081109DF8001001F0010140EA810032496D
:100440001431096808433049143108609DF80100EF
:1004500000F00C0000069DF8011001F0020140EAD6
:1004600081109DF8011001F0010140EA8100264948
:10047000C96908432449C8619DF8020000F00C00D6
:1004800000069DF8021001F0020140EA81109DF87B
:10049000021001F0010140EA81001B49496A08434A
:1004A000194948629DF8030000F00C0000069DF811
:1004B000031001F0020140EA81109DF8031001F0E1
:1004C000010140EA81001049C96A08430E49C86227
:1004D0009CE10D481430006820F003200A491431D3
:1004E00008600948C06920F003210748C161406ADB
:1004F00020F0032104484162C06A14E0243802401D
:10050000007000402428004000240040000000202B
:10051000AE0B00087A0B0008FCFFFFCF03FFFFF3D0
:1005200000E1A4E046E020F00321F848C1629DF814
:10053000000000F00C0080059DF8001001F00301A0
:1005400040EA0120F149143109680843EF491431A8
:1005500008609DF8010000F00C0080059DF8011076
:1005600001F0030140EA0120E849C9690843E7496D
:10057000C8619DF8020000F00C0080059DF8021093
:1005800001F0030140EA0120E049496A0843DF49DC
:1005900048629DF8030000F00C0080059DF80310F0
:1005A00001F0030140EA0120D849C96A0843D7494C
:1005B000C8622BE1D54814300068D5490840D349BA
:1005C00014310860D148C069D1490840CF49C86199
:1005D0000846406ACE490840CC4948620846C06A8D
:1005E000CB490840C949C8629DF8000000F00C00E2
:1005F00080049DF8001001F0030140EA8120C34906
:10060000143109680843C149143108609DF801009C
:1006100000F00C0080049DF8011001F0030140EA95
:100620008120BA49C9690843B849C8619DF80200E8
:1006300000F00C0080049DF8021001F0030140EA74
:100640008120B249496A0843B04948629DF80300D5
:1006500000F00C0080049DF8031001F0030140EA53
:100660008120AA49C96A0843A849C862CEE0A748C0
:100670001430006820F44320A44914310860A348D2
:10068000C06920F44321A148C161406A20F441219E
:100690009E484162C06A20F441219C48C1629DF895
:1006A000000000F00C0000049DF8001001F00301B0
:1006B00040EA0130954914310968084393491431DF
:1006C00008609DF8010000F00C0000049DF8011086
:1006D00001F0030140EA01308C49C96908438B49A4
:1006E000C8619DF8020000F00C0000049DF80210A3
:1006F00001F0010140EA01308449496A0843834915
:1007000048629DF8030000F00C0000049DF80310FF
:1007100001F0010140EA01307C49C96A08437B4984
:10072000C86273E079481430006820F4703077496B
:10073000143108607548C06920F470317348C16194
:10074000406A20F4703171484162C06A20F470310F
:100750006E48C1629DF8000000F00400C0039DF8DF
:10076000001001F0080140EA41309DF8001001F04E
:10077000030140EA8130654914310968084363493F
:10078000143108609DF8010000F00400C0039DF8DA
:10079000011001F0080140EA41309DF8011001F01C
:1007A000030140EA81305949C96908435749C86182
:1007B0009DF8020000F00400C0039DF8021001F053
:1007C000080140EA41309DF8021001F0010140EAC1
:1007D00081304E49496A08434C4948629DF80300FC
:1007E00000F00400C0039DF8031001F0080140EA86
:1007F00041309DF8031001F0010140EA8130434986
:10080000C96A08434149C86200E000BF00BFFFF762
:10081000D0FC3E480830006840F004003B490831F5
:10082000086000BF39480830006800F00800002860
:10083000F8D0F8BD10B50446012300221146204629
:10084000FFF75CFD022300221146601CFFF756FDF6
:10085000032300221146A01CFFF750FD04230022B1
:100860001146E01CFFF74AFD052300221146201D1A
:10087000FFF744FD062300221146601DFFF73EFDF1
:1008800010BD244821491431086023491F48C16123
:100890004FF0012141624904C1621C4808300068E0
:1008A00040F0040019490831086070472CE0FFF758
:1008B000E8FF1A48008A00F00100002823D018A0A1
:1008C000FFF7B8FF002400E0641C17488442FBDBFC
:1008D00016A0FFF7AFFF002400E0641C124884421A
:1008E000FBDB14A0FFF7A6FF002400E0641C0E4809
:1008F0008442FBDB11A0FFF79DFF002400E0641C95
:1009000009488442FBDB00BFD1E70000002400401F
:10091000FFF3CFFF86FC232C83B43D3C0000024054
:100920005468697300000000801A0600436C61730C
:10093000730000004953202020200000436F6F6C9B
:10094000000000005D48006820F003005B4908607B
:100950000846C06820F00300C86070475848006827
:1009600040F04C0056490860081D006840F44060A3
:10097000091D0860081F006840F08000091F08601A
:100980000846006820F002000860081D006840F07A
:100990007000091D086017E049480830006800F041
:1009A000200088B14648006840F0010044490860D2
:1009B0000846006800F0010030B141480830006886
:1009C00000F0200000B100E0E6E700BF70473D48BE
:1009D000006840F007003B490860384800683A4921
:1009E0000843364908600846006A4BF6B0310843B0
:1009F000324908620846406A344908432F49486230
:100A000008468068002088600846C0680020C860EA
:100A100008468088002088802D48006800202C49E6
:100A200008600846006840F42860086008460068CE
:100A3000284908432649086025482030006826498F
:100A400008432349203108602148406A40F0BB3107
:100A50001F4841621E480830006800201C490831C8
:100A600008601E48006800F070401C490860084695
:100A700000681B490843194908601848203000687D
:100A8000184908431549203108601448406A4BF65C
:100A9000BB31084311494862104808300068002003
:100AA0000E49083108607047FFF72EFBFFF78FFFF4
:100AB000FFF754FFFFF746FFFFF7F8FE0000024084
:100AC000002400401C380240A8002A80BB0B00B064
:100AD000000402400000AAAA00B0BB0000080240C7
:100AE000AAA0AA00BBBB00BB0E480F490F4B9942FE
:100AF0003CBF50F8042B41F8042BF8D30C494FF0BD
:100B000000028B4238BF43F8042BFAD30948004750
:100B1000FEE7FEE7FEE7FEE7FEE7FEE7FEE7FEE7AD
:100B2000FEE7FEE7E40B00080000002004000020C0
:100B300008040020F5000008064C074D06E0E068B8
:100B400040F0010394E8070098471034AC42F6D314
:100B5000FFF7D4FAC40B0008E40B000802E008C851
:100B6000121F08C1002AFAD170477047002001E027
:100B700001C1121F002AFBD1704700FE1467001D3F
:100B80001447009D009C003F00FA14000053419858
:100B90000019485A095A005F00FC015F01FC00AFD0
:100BA0001404005BC018815AC9005800C005005FDA
:100BB000004200F5006700EA00AF00BF004600FFFA
:100BC00000EF0000E40B000800000020040000001B
:100BD0005C0B0008E80B000804000020040400007F
:080BE0006C0B0008000000008E
:04000005080000F5FA
:00000001FF
