:020000040800F2
:1000000008040020C1120008E9120008EB120008E1
:10001000ED120008EF120008F112000800000000C5
:10002000000000000000000000000000F3120008C3
:10003000F512000800000000F7120008F91200088D
:10004000FB120008FB120008FB120008FB1200085C
:10005000FB120008FB120008FB120008FB1200084C
:10006000FB120008FB120008FB120008FB1200083C
:10007000FB120008FB120008FB120008FB1200082C
:10008000FB120008FB120008FB120008FB1200081C
:10009000FB120008FB120008FB120008FB1200080C
:1000A000FB120008FB120008FB120008FB120008FC
:1000B000FB120008FB120008FB120008FB120008EC
:1000C000FB120008FB120008FB120008FB120008DC
:1000D000FB120008FB120008FB120008FB120008CC
:1000E000FB120008FB120008FB120008FB120008BC
:1000F000FB120008DFF80CD001F050F9004800476F
:100100009312000808040020FC48006840F080506A
:10011000FA490860FA48006840F48070F8490860BD
:10012000F6481030006840F40030F449103108609F
:100130000846006840F480000860CA20F149086061
:100140005320086000BFED482438006800F40070B8
:100150000028F8D0E948006840F40070E7490860DA
:10016000081F006840F00100091F0860E3481030D4
:10017000006840F00100E1491031086000BFDF482D
:100180001030006800F002000028F8D0DB48103082
:10019000006820F40030D949103108600846006832
:1001A00040F4003008600846006840F480000860B1
:1001B0007047D548008800F48070002864D1D24888
:1001C000008800F4807000285CD1D048808A40F01C
:1001D0002000CE498882CC48008800F4807030B17D
:1001E0000846808A20F02000888231207047C74866
:1001F000808A20F02000C54988820846808A40F421
:1002000000608882C048008800F4807030B10846E1
:10021000808A20F4006088823420E7E7BB48808A27
:1002200020F40060B94988820846808A40F48050F2
:100230008882B548008800F4807030B10846808A12
:1002400020F4805088823720D0E7B048808A20F49C
:100250008050AE4988820846808A40F400408882F7
:10026000A948008800F4807030B10846808A20F4E4
:10027000004088822A20B9E7A448808A20F4004000
:10028000A24988827F20B1E79F48008800F400508F
:10029000002864D19C48008800F4005000285CD1FC
:1002A0009A48808A40F020009849888296480088C1
:1002B00000F4005030B10846808A20F02000888287
:1002C000322093E79148808A20F020008F4988826D
:1002D0000846808A40F4006088828B48008800F4D9
:1002E000005030B10846808A20F4006088823520B2
:1002F0007CE78648808A20F400608449888208462A
:10030000808A40F4805088827F48008800F4005042
:1003100030B10846808A20F480508882382065E712
:100320007A48808A20F48050784988820846808AFA
:1003300040F4004088827448008800F4005030B1D6
:100340000846808A20F40040888230204EE76F48BB
:10035000808A20F400406D4988827F2046E76A4801
:10036000008800F48040002864D16748008800F4C9
:10037000804000285CD16548808A40F020006349B5
:1003800088826148008800F4804030B10846808A45
:1003900020F020008882332028E75C48808A20F003
:1003A00020005A4988820846808A40F4006088828A
:1003B0005548008800F4804030B10846808A20F417
:1003C00000608882362011E75048808A20F400605F
:1003D0004E4988820846808A40F4805088824A4884
:1003E000008800F4804030B10846808A20F48050B4
:1003F00088823920FAE64548808A20F480504349B3
:1004000088820846808A40F4004088823E480088FE
:1004100000F4804030B10846808A20F40040888291
:100420002320E3E63948808A20F400403749888257
:100430007F20DBE63448008800F4004000286FD1BC
:100440003148008800F40040002867D12F48808A96
:1004500040F020002D4988822B48008800F400409D
:1004600030B10846808A20F0200088824120BDE615
:100470002648808A20F02000244988820846808A05
:1004800040F4006088822048008800F4004030B1C9
:100490000846808A20F4006088824220A6E61B4835
:1004A000808A20F40060194988820846808A40F4D6
:1004B000805088821448008800F4004030B108461B
:1004C000808A20F48050888243208FE60F48808AFB
:1004D00020F480500D4988820846808A40F400400C
:1004E00088820948008800F4004088B10846808A64
:1004F00020F400408882442078E611E0243802404D
:100500000070004024280040100402400000024017
:10051000FC48808A20F40040FA4988827F2065E602
:100520007F2063E6F848406A20F42041F6484162A3
:10053000C06A20F42041F448C162406AF349097856
:1005400040EA0131F0484162C06AF049497840EA26
:100550000131ED48C1627047F0B50C4615461E46A4
:1005600000220778342F47D014DC2F2F38D008DC36
:10057000202F24D0252F35D02A2F22D02D2F47D120
:100580002BE0302F34D0312F33D0322F32D0332FD5
:100590003ED130E0392F34D008DC352F2DD0362F26
:1005A0002CD0372F2BD0382F32D129E03F2F0BD032
:1005B0006D2F0CD06E2F0DD0FF2F29D115E000220A
:1005C0003FE04AF2DD023CE046F2840239E04BF2C1
:1005D000102236E042F2102233E04FF4204230E0A5
:1005E000C0222EE04FF433422BE04FF6DD7228E0BC
:1005F00000BF00BF00BF00BF00BF00BF00BF00BF03
:1006000000BF0778303FDFF808C33CF8172018E038
:1006100007785B2F08DA0778402F05DD0778413F20
:10062000DFF8F0C23CF8172007787B2F08DA07784C
:10063000602F05DD0778613FDFF8D8C23CF817204E
:1006400000BF00BF0CB142F002020DB142F0200227
:100650000C23002108E042FA03F707F00F07775454
:100660001F1FFBB24F1CF9B20429F4DBF0BDF8B533
:1006700005460E4617461C466B463A463146284606
:10068000FFF76AFF00BFA0480830006800F00400D0
:100690000028F8D1072C7DD2DFE804F07C045DD47B
:1006A000FEFDFC009848143000689B4908409649BC
:1006B000143108609448C069974908409249C8615C
:1006C0000846406A944908408F4948620846C06A13
:1006D000914908408C49C8629DF8000000F0030071
:1006E0009DF8001001F00C0140EA81608649143148
:1006F000096808438449143108609DF8010000F03E
:1007000003009DF8011001F00C0140EA81607E4970
:10071000C96908437C49C8619DF8020000F00300E4
:100720009DF8021001F00C0140EA81607649496AA7
:100730000843754948629DF8030000F003009DF8E6
:10074000031001F00C0140EA81606F49C96A084357
:100750006D49C86222E26C48143000686F49084055
:100760006949143108606848C0696C4908406649A5
:10077000C8610846406A69490840634948620846BA
:10078000C06A664908406049C8629DF8000000F0F0
:100790000C0000E001E200069DF8001001F00201EB
:1007A00040EA81109DF8001001F0010140EA81004B
:1007B00055491431096808435349143108609DF8BC
:1007C000010000F00C0000069DF8011001F002018C
:1007D00040EA81109DF8011001F0010140EA81001A
:1007E0004949C96908434849C8619DF8020000F0B9
:1007F0000C0000069DF8021001F0020140EA811091
:100800009DF8021001F0010140EA81003E49496A69
:1008100008433D4948629DF8030000F00C000006C3
:100820009DF8031001F0020140EA81109DF80310C9
:1008300001F0010140EA81003349C96A08433249A5
:10084000C862ABE130481430006820F003202E4924
:10085000143108602C48C06920F003212A48C16186
:10086000406A20F0032128484162C06A20F0032139
:100870002548C1629DF8000000F00C0080059DF83D
:10088000001001F0030140EA01201F4914310968FA
:10089000084302E008E1A6E042E01B491431086089
:1008A0009DF8010000F00C0080059DF8011001F09A
:1008B000030140EA01201449C96908431249C8618B
:1008C0009DF8020000F00C0080059DF8021001F078
:1008D000030140EA01200C49496A08430A49486279
:1008E0009DF8030000F00C0080059DF8031001F056
:1008F000030140EA01200449C96A08430249C86269
:100900004CE10000000002400024004000000020F4
:10091000DE140008AA140008FCFFFFCF03FFFFF35A
:10092000FD480068FD490840FB490860FA48143852
:10093000C069FA490840F8491439C8610846406A54
:10094000F6490840F449143948620846C06AF34938
:100950000840F1491439C8629DF8000000F00C000D
:1009600080049DF8001001F0030140EA8120EA496B
:1009700009680843E84908609DF8010000F00C0090
:1009800080049DF8011001F0030140EA8120E24952
:100990001439C9690843E0491439C8619DF8020057
:1009A00000F00C0080049DF8021001F0030140EA01
:1009B0008120D9491439496A0843D7491439486212
:1009C0009DF8030000F00C0080049DF8031001F076
:1009D000030140EA8120D0491439C96A0843CE494D
:1009E0001439C862DAE0CC48006820F44320CA49D0
:1009F0000860C9481438C06920F44321C648143837
:100A0000C161406A20F44121C34814384162C06A80
:100A100020F44121C0481438C1629DF8000000F064
:100A20000C0000049DF8001001F0030140EA0130C1
:100A3000B94909680843B84908609DF8010000F009
:100A40000C0000049DF8011001F0030140EA0130A0
:100A5000B1491439C9690843AF491439C8619DF8CF
:100A6000020000F00C0000049DF8021001F00101EA
:100A700040EA0130A8491439496A0843A6491439A3
:100A800048629DF8030000F00C0000049DF803107C
:100A900001F0010140EA01309F491439C96A084355
:100AA0009D491439C86279E09B48006820F4703091
:100AB0009949086098481438C06920F47031964804
:100AC0001438C161406A20F470319348143841628F
:100AD000C06A20F4703190481438C1629DF800005B
:100AE00000F00400C0039DF8001001F0080140EA86
:100AF00041309DF8001001F0030140EA8130864941
:100B000009680843844908609DF8010000F004006A
:100B1000C0039DF8011001F0080140EA41309DF842
:100B2000011001F0030140EA81307B491439C969A1
:100B3000084379491439C8619DF8020000F00400A7
:100B4000C0039DF8021001F0080140EA41309DF811
:100B5000021001F0010140EA81306F491439496AFD
:100B600008436D49143948629DF8030000F0040001
:100B7000C0039DF8031001F0080140EA41309DF8E0
:100B8000031001F0010140EA813063491439C96A58
:100B9000084361491439C86200E000BF00BFFFF795
:100BA000C1FC5D480C38006840F004005A490C391B
:100BB000086000BF58480C38006800F008000028A2
:100BC000F8D0F8BD10B50446012300221146204696
:100BD000FFF74DFD022300221146601CFFF747FD81
:100BE000032300221146A01CFFF741FD042300222D
:100BF0001146E01CFFF73BFD052300221146201D96
:100C0000FFF735FD062300221146601DFFF72FFD7B
:100C100010BD70B50446204600F07AFB0546284614
:100C200070BD78B53EA52D6800953C2590FBF5F389
:100C3000C3EB0315A0EB850000220FE004210AE0BE
:100C4000002400E0641CB4F57A6FFBDB1DF8015052
:100C5000344E3580491E0029F2DA521C9A42EDDBEF
:100C6000304D2D8825F00F052E4E358078BD78B596
:100C70002DA52D6800953C2590FBF5F3C3EB0315DE
:100C8000A0EB850000220FE004210AE0002400E030
:100C9000641CB4F57A6FFBDB1DF80150214E3580E2
:100CA000491E0029F2DA521C9A42EDDB1D4D2D88B7
:100CB00025F00F051B4E358078BD08B57F208DF8D7
:100CC00000008DF801008DF8020074E0FFF771FA62
:100CD0000446412C06D16846FFF79BFF0546FFF707
:100CE000C6FF2024422C06D16846FFF792FF054636
:100CF000FFF797FF20247F2C1DD09DF800007F2850
:100D000019D18DF80040232C01D18DF800006846E0
:100D1000FFF758FF0DE0000014240040FFF3CFFF61
:100D20000A09050614080240090A0605FFF741FAF8
:100D300004467F2CFAD17F2C14D09DF801007F2827
:100D400010D18DF80140232C03D18DF800008DF8CF
:100D500001006846FFF736FF02E0FFF72AFA044673
:100D60007F2CFAD17F2C14D09DF802007F2810D15F
:100D70008DF80240232C03D18DF801008DF802007C
:100D80006846FFF71FFF02E0FFF713FA04467F2CC7
:100D9000FAD1232C0FD19DF802007F280BD07F20A1
:100DA0008DF802006846FFF70DFF02E0FFF701FA39
:100DB00004467F2CFAD189E7FE48006820F0030042
:100DC000FC4908600846006820F00C0008600846EE
:100DD000006820F0300008600846006820F0C0007D
:100DE00008600846006840F0010008600846006896
:100DF00040F0040008600846006840F010000860F9
:100E00000846006840F040000860081D008820F097
:100E10000100091D08800846008820F002000880B3
:100E20000846008820F0040008800846008820F06A
:100E300008000880081D006820F00300091D0860F4
:100E40000846006820F00C0008600846006820F0A2
:100E5000300008600846006820F0C00008600846BE
:100E6000006840F0020008600846006840F0080092
:100E700008600846006840F02000086008460068E6
:100E800040F080000860081D006820F00300091D84
:100E900008600846006820F00C00086008460068FA
:100EA00020F0300008600846006820F0C0000860AC
:100EB0000846006840F0010008600846006840F0FD
:100EC000040008600846006840F01000086008460A
:100ED000006840F0400008607047B748006820F4A0
:100EE0004030B54908600846006820F0406008605E
:100EF0000846006820F0405008600846006820F06E
:100F000040400860AC480C30006820F44030AA49EA
:100F10000C3108600846006820F040600860084610
:100F2000006820F0405008600846006820F040400B
:100F300008600846006820F4003008600846006831
:100F400020F0006008600846006820F0005008604B
:100F50000846006820F0004008609848006820F4C7
:100F60004060964908600846006820F44000086028
:100F70000846006820F0407008600846006820F0CD
:100F8000404008600846006840F4806008600846F9
:100F9000006840F4800008600846006840F08070F7
:100FA00008600846006840F0804008600846808875
:100FB00040F0200088800846808840F400608880E7
:100FC0000846808840F4805088800846808840F435
:100FD000004088800846806820F4406088600846A9
:100FE000806820F4400088600846806820F04070E7
:100FF00088600846806820F0404088600846806825
:1010000040F4006088600846806840F40000886012
:101010000846806840F0007088600846806840F0AC
:10102000004088600846C06820F44060C8600846F8
:10103000C06820F44000C8600846C06820F04070D6
:10104000C8600846C06820F04040C86070475C48EF
:10105000006840F04C005A490860081D006840F4E0
:101060004060091D0860081F006840F08000091FEB
:1010700008600846006820F002000860081D00684B
:1010800040F07000091D086017E04D480830006806
:1010900000F0200088B14A48006840F0010048494B
:1010A00008600846006800F0010030B1444808308C
:1010B000006800F0200000B100E0E6E700BF7047E4
:1010C0004048006840F007003E4908603B4800681F
:1010D00020F00C00394908600846006820F0300014
:1010E00008600846006820F0C000086008460068F4
:1010F00020F4403008600846006820F44020086072
:101100000846006820F4401008600846006840F077
:10111000080008600846006840F0200008600846A3
:10112000006840F0800008600846006840F4003025
:1011300008600846006840F400200860084600681F
:1011400040F4001008600846006A4BF6B0310843CE
:101150001A4908620846406A1B4908431749486211
:1011600008468068002088600846C0680020C86083
:1011700008468088002088800F48006820F0C00062
:101180000D4908600846006820F440700860084671
:10119000006820F4406008600846006820F44020A1
:1011A00008600846006820F440100860084600689F
:1011B0000CE0000000080240000402400000024071
:1011C000002400401C380240BB0B00B020F440005B
:1011D00008600846006820F0407008600846006813
:1011E00040F0800008600846006840F40070086025
:1011F0000846006840F4006008600846006840F453
:10120000002008600846006840F4001008600846A6
:10121000006840F4000008600846006840F0007074
:1012200008602248006822490843204908601F4896
:101230002038406A40F0BB311C48203841621B48CE
:1012400018380068002019491839086019480068E2
:1012500000F07040174908600846006816490843C6
:1012600014490860134820300068144908431149A4
:10127000203108600F48406A4BF6BB3108430D49E6
:1012800048620C480830006800200A4908310860AC
:101290007047FEF739FFFFF713FFFFF7D8FEFFF7A0
:1012A0001CFEFFF789FDFFF708FD00002004024047
:1012B00000B0BB0000080240AAA0AA00BBBB00BB54
:1012C0000E480F490F4B99423CBF50F8042B41F890
:1012D000042BF8D30C494FF000028B4238BF43F87F
:1012E000042BFAD309480047FEE7FEE7FEE7FEE7D6
:1012F000FEE7FEE7FEE7FEE7FEE7FEE798150008DB
:10130000000000200800002008040020F50000086C
:1013100070B5064600F0B6F8046805460A220021BA
:10132000304600F002F82C6070BD2DE9F047914680
:101330000F4680460446002614F8015B2DB100F0EC
:101340003FF80068405DC007F6D12B2D02D02D2D4F
:1013500018D0641E4A463946204600F035F827B1B9
:101360003968A14201D1C7F8008071054FF002042D
:101370000BD54042002803DD00F084F80460A0078C
:10138000BDE8F08746F48066E4E70028F8DA00F06C
:1013900079F804606FF00040F2E70000064C074D5A
:1013A00006E0E06840F0010394E807009847103435
:1013B000AC42F6D3FEF7A2FE781500089815000897
:1013C00000487047741500082DE9F05F82460078E8
:1013D000002715468B460AF10104B946302801D092
:1013E0009DB113E014F8010B0127782803D0582889
:1013F00001D045B10AE00DB1102D07D1002710250D
:1014000014F8010B02E0082500E00A250026B0468A
:101410000EE005FB080005FB06F1012701EB104675
:101420001FFA80F8B6F5803F00D3B94614F8010BD7
:10143000294600F018F80028EBDABBF1000F05D0C0
:101440000FB1641E00E05446CBF80040B9F1000F24
:1014500006D000F017F802210160C81EBDE8F09F19
:1014600048EA0640FAE73A2800D2303820F0200255
:10147000412A01D3A2F13700884201D34FF0FF3057
:1014800070470000004870470400002002E008C8D0
:10149000121F08C1002AFAD170477047002001E0EE
:1014A00001C1121F002AFBD1704700FE1467001D06
:1014B0001447009D009C003F00FA1400005341981F
:1014C0000019485A095A005F00FC015F01FC00AF97
:1014D0001404005BC018815AC9005800C005005FA1
:1014E000004200F5006700EA00AF00BF004600FFC1
:1014F00000EF0040404040404040404041414141B9
:1015000041404040404040404040404040404040DA
:1015100040404005020202020202020202020202EE
:10152000020202202020202020202020200202026F
:1015300002020202909090909090101010101010E3
:1015400010101010101010101010101010100202B7
:101550000202020288888888888808080808080823
:101560000808080808080808080808080808020207
:1015700002024000F3140008981500080000002043
:10158000080000008C140008A015000808000020C6
:10159000000400009C14000800000000000000008F
:04000005080000F5FA
:00000001FF
