:020000040800F2
:100000001804002061070008890700088B07000812
:100010008D0700088F070008910700080000000006
:10002000000000000000000000000000930700082E
:1000300095070008000000009707000899070008CE
:100040009B0700089B0700089B0700089B07000808
:100050009B0700089B0700089B0700089B070008F8
:100060009B0700089B0700089B0700089B070008E8
:100070009B0700089B0700089B0700089B070008D8
:100080009B0700089B0700089B0700089B070008C8
:100090009B0700089B0700089B0700089B070008B8
:1000A0009B0700089B0700089B0700089B070008A8
:1000B0009B0700089B070008D10600089B07000863
:1000C0009B0700089B0700089B0700089B07000888
:1000D0009B0700089B0700089B0700089B07000878
:1000E0009B0700089B0700089B0700089B07000868
:1000F0009B070008DFF80CD000F05AFB00480047CF
:100100009F05000818040020FE48006840F0010028
:10011000FC49086000BFFB48006800F002000028AE
:10012000F9D0F8480830006820F00100F54908319E
:1001300008600846006840F00100086000BFF14810
:100140000830006800F00C000428F8D1ED48243095
:10015000006840F08050EB4924310860EA480068AC
:1001600040F48070E8490860E6483430006840F4A4
:100170000030E449343108600846006840F48000EB
:100180000860CA20E14908605320086000BFDD48CC
:10019000006800F400700028F9D0DA4824300068C4
:1001A00040F40070D74924310860081F006840F00F
:1001B0000100091F0860D3483430006840F0010096
:1001C000D0493431086000BFCE483430006800F0B8
:1001D00002000028F8D0CB483430006820F400300A
:1001E000C849343108600846006840F400300860AF
:1001F0000846006840F4800008607047C148243019
:10020000006840F00100BF49243108600F20090751
:1002100008854FF6FF708885602088830846808BAC
:1002200040F0080088830846008840F0800008807D
:100230000846008C40F4807008840846808F0020B7
:1002400088870A2088874007008840F001000880DE
:10025000704710B5AB482430006840F00400A9494D
:10026000243108600F20AA490880A9481038008866
:1002700020F00300A649103908800846008840F0A5
:10028000010008800846008820F0F0000880A0489F
:100290000838008840F00A009D49083908809C48C9
:1002A0001038008820F00C009949103908809848CF
:1002B0000838008840F001009549083908809448C2
:1002C0001C38008840F0020091491C39088008461B
:1002D000008840F4007008808D482838008840F07D
:1002E00001008B49283908801E200121002807DAE7
:1002F0000A07140E874A00F00F031B1FD45403E0B3
:100300000A07130E844A135400BF1E2001218140A6
:100310004209920002F1E022C2F8001100BF10BDB4
:1003200078481C30006840F0010076491C310860B4
:100330000846006840F0020008607848006820F431
:100340004010764908600846006840F400100860D4
:100350000846006820F4405008600846006840F4F1
:10036000005008606D482030006820F070606B49D4
:10037000203108600846006840F000700860674857
:10038000406A20F4706165484162406A40F48071BF
:1003900062484162006840F4804060490860081D7E
:1003A000008820F08000091D0880081D006820F4E6
:1003B0004040091D08600846006840F4004008609D
:1003C000081D006820F44040091D0860544800687A
:1003D00020F00300524908600846C06820F003007E
:1003E000C860704715E0002100E0491CB1F5FA7FB4
:1003F000FBDB4C4A12683A2392FBF3F00A2807DA37
:10040000464A1432128882F08002444B14331A8018
:1004100000BFE8E74448006840F04C0042490860EB
:10042000081D006840F44060091D0860081F00684E
:1004300040F08000091F08600846006820F00200B4
:100440000860081D006840F07000091D086017E092
:1004500035480830006800F0200088B13248006854
:1004600040F00100304908600846006800F00100D3
:1004700030B12D480830006800F0200000B100E0E5
:10048000E6E700BF70471F481C30006840F00700D7
:100490001C491C310860224800682449084320494F
:1004A00008600846006A4BF6B03108431C490862F0
:1004B0000846406A1E490843194948620846806850
:1004C000002088600846C0680020C8600846808810
:1004D0000020888011480068002010490860084604
:1004E000006840F428600860084600681149084325
:1004F0000A4908600948203000680F490843074945
:1005000020311BE0003802400070004024280040E9
:100510002808004018ED00E000E400E0000402407C
:10052000000002400800002000240040A8002A80AB
:10053000BB0B00B00000AAAA00B0BB0008607D4859
:10054000406A40F0BB317B4841627A48083000681D
:1005500000207849083108607748006800F0704052
:100560007549086008460068744908437249086084
:10057000714820300068724908436F492031086093
:100580006D48406A4BF6BB3108436B4948626A4884
:100590000830006800206849083108607047FFF79C
:1005A000B3FDFFF770FFFFF735FFFFF7B9FEFFF769
:1005B00025FEFFF74EFEFFF715FFF0B50C4615467A
:1005C0001E4600220778342F47D014DC2F2F38D056
:1005D00008DC202F24D0252F35D02A2F22D02D2FF4
:1005E00047D12BE0302F34D0312F33D0322F32D0BF
:1005F000332F3ED130E0392F34D008DC352F2DD0C9
:10060000362F2CD0372F2BD0382F32D129E03F2F47
:100610000BD06D2F0CD06E2F0DD0FF2F29D115E0F0
:1006200000223FE04AF2DD023CE046F2840239E07B
:100630004BF2102236E042F2102233E04FF4204217
:1006400030E0C0222EE04FF433422BE04FF6DD7253
:1006500028E000BF00BF00BF00BF00BF00BF00BF59
:1006600000BF00BF0778303FDFF8D8C03CF8172044
:1006700018E007785B2F08DA0778402F05DD077848
:10068000413FDFF8C4C03CF8172007787B2F08DA19
:100690000778602F05DD0778613FDFF8ACC03CF8D4
:1006A000172000BF00BF0CB142F002020DB142F0B2
:1006B00020020C23002108E042FA03F707F00F079D
:1006C00077541F1FFBB24F1CF9B20429F4DBF0BDB5
:1006D0001E48008800F0010050B11D480068401C11
:1006E0001B4908601948008820F00100174908805C
:1006F0001648008800F00200D8B114482430008861
:10070000144908601448006860B10846006812493E
:100710000968401A0E4909684FF4803202FB010053
:100720000E49086000200A4908600A4800680A4922
:10073000086070470004024000080240AAA0AA0016
:10074000BBBB00BB26080008F207000810080040E9
:100750000C00002000000020040000200800002001
:100760000E480F490F4B99423CBF50F8042B41F8FB
:10077000042BF8D30C494FF000028B4238BF43F8EA
:10078000042BFAD309480047FEE7FEE7FEE7FEE741
:10079000FEE7FEE7FEE7FEE7FEE7FEE75C0800088F
:1007A000000000201400002018040020F5000008BC
:1007B000064C074D06E0E06840F0010394E80700AE
:1007C00098471034AC42F6D3FFF798FC3C08000879
:1007D0005C08000802E008C8121F08C1002AFAD10C
:1007E00070477047002001E001C1121F002AFBD1B1
:1007F000704700FE1467001D1447009D009C003FD9
:1008000000FA1400005341980019485A095A005F31
:1008100000FC015F01FC00AF1404005BC018815AAA
:10082000C9005800C005005F004200F5006700EAFB
:1008300000AF00BF004600FF00EF00005C080008AA
:100840000000002014000000D40700087008000811
:100850001400002004040000E40700080000000069
:100860000000000000000000000000000000000088
:04000005080000F5FA
:00000001FF
